:020000040800F2
:1000000060080020A1010008A9010008AB01000858
:10001000AD010008AF010008B101000800000000B8
:10002000000000000000000000000000B301000814
:10003000B501000800000000B7010008251D0008F8
:10004000BB010008BB010008BB010008BB010008A0
:10005000BB010008BB010008BB010008BB01000890
:10006000BB010008BB010008BB010008BB01000880
:10007000BB010008BB010008BB010008BB01000870
:10008000BB010008BB010008BB010008BB01000860
:10009000BB010008BB010008BB010008BB01000850
:1000A000BB010008BB010008BB010008BB01000840
:1000B000BB010008BB010008BB010008BB01000830
:1000C000BB010008BB010008BB010008BB01000820
:1000D000BB010008BB0100085D200008BB0100084F
:1000E000BB010008BB010008BB010008BB01000800
:1000F000BB010008BB010008BB010008BB010008F0
:10010000BB010008BB010008BB010008BB010008DF
:10011000BB010008BB010008BB010008BB010008CF
:10012000BB010008BB010008BB010008BB010008BF
:10013000BB010008BB010008BB010008BB010008AF
:10014000BB010008BB010008BB010008BB0100089F
:10015000BB010008BB010008BB010008BB0100088F
:10016000BB010008BB010008BB010008BB0100087F
:10017000BB010008BB010008BB0100080000000033
:10018000BB010008BB010008DFF810D000F0B8FB8D
:1001900000480047F9290008AFF3008060080020FC
:1001A0000648804706480047FEE7FEE7FEE7FEE711
:1001B000FEE7FEE7FEE7FEE7FEE7FEE7D51D0008E7
:1001C000890100082DE9F05F0546002092469B4614
:1001D00088460646814640241BE02846414647465D
:1001E000224600F0E4F953465A46C01A914110D312
:1001F00011461846224600F0CBF92D1A67EB01088C
:100200004F4622460120002100F0C2F917EB0009F9
:100210004E41201EA4F10104DFDC484631462A4647
:100220004346BDE8F09FD2B201E000F8012B491E21
:10023000FBD270470022F6E710B513460A46044683
:100240001946FFF7F0FF204610BD421E12F8013F8D
:10025000002BFBD111F8013B02F8013B002BF9D137
:10026000704710B5044604E00B7800F8013B03B179
:10027000491C521EF8D2204610BD421C10F8011B2A
:100280000029FBD1801A704710B5002200E0521CF3
:10029000835C8C5CA34201D1002BF8D1D8B2E1B2CF
:1002A000401A10BD034611F8012B00F8012B002A5B
:1002B000F9D118467047000070B50F4D00B9286895
:1002C000002412E00A4602E09E4203D0521C13783A
:1002D000002BF9D1DAB2224305D02BB124B1002191
:1002E00000F8011B04E00446401C0678002EE9D10A
:1002F0002860204670BD00001400002070B506463E
:1003000001F0E6FE046805460A220021304600F0AE
:10031000BFF92C6070BD2DE9FE4F804681EA0300D5
:10032000C00F0C46009021F0004123F00045B8EBCF
:100330000200A94105D24046214690461C460B4684
:10034000024623F00040104347D0270DC7F30A00B0
:10035000C3F30A510290401A019040286BDAC3F3AC
:10036000130040F4801B0098924620B10023D2EB8A
:10037000030A63EB0B0B01985946C0F1400250464B
:1003800000F006F906460D4650465946019A00F01F
:100390001EF910EB08006141002487EA115284EA3B
:1003A000E7731A4340D0009A62B3019A012A4FEAD8
:1003B000075215DC001B61EB02014FF0004202EA1C
:1003C0000752CDE90042001C41F5801132462B4610
:1003D00000F0A5F903B0BDE8F08F40462146F9E7EB
:1003E000001B61EB0201001C41F5801300185B410A
:1003F0002018A2F5001747EB030140EAD570B619A3
:100400006D4111E06D084FEA360645EAC0754FEAC6
:100410000752001B61EB0201001C41F580114908E5
:100420004FEA30000019514132462B4603B0BDE877
:10043000F04F00F065B90098012240000023D0EB96
:10044000020263EBE073009821464FEAE074B8EBD8
:10045000000061EB0401E9E783F000435BE781F012
:10046000004158E72DE9F04D81EA030404F0004B08
:1004700021F0004514464FF0000A23F0004150EAF5
:10048000050220D054EA01021DD0C5F30A570246E6
:10049000C5F31303C1F31300C1F30A5640F48015EA
:1004A00043F48013A7EB0608101BD64608F2FD386C
:1004B00073EB050002D308F1010801E092185B41DB
:1004C000B8F1000F03DA00200146BDE8F08D0020EE
:1004D0004FF48011064684460EE0171B73EB0507A8
:1004E00005D3121B63EB050306434CEA010C4908D4
:1004F0004FEA300092185B4150EA0107EDD152EA11
:10050000030012D082EA040083EA0501084305D003
:10051000101BAB4106D20122002306E000224FF05F
:10052000004302E06FF0010253101AEB06004CEB9F
:10053000085110EB0A0041EB0B01BDE8F04D00F053
:10054000DFB80EB5C10F80EAE0700844CA07002189
:1005500040F233438DE80E000A460B4600F0DFF808
:1005600003B000BD30B50B46014600202022012417
:1005700009E021FA02F59D4205D303FA02F5491B71
:1005800004FA02F52844151EA2F10102F1DC30BD87
:10059000202A04DB203A00FA02F100207047914043
:1005A000C2F1200320FA03F3194390407047202A38
:1005B00004DB203A21FA02F00021704721FA02F30D
:1005C000D040C2F120029140084319467047202ACA
:1005D00006DBCB17203A41FA02F043EAE07306E06B
:1005E00041FA02F3D040C2F120029140084319467B
:1005F000704700000FB4002300B589B00CA900912A
:100600000B996FF00042CB601E4B06931E4B079375
:100610000423CDE901321D4A089202466B460020B0
:1006200000F022FA09B05DF814FB70B586B00646FA
:100630004FF0FF300091CDE90101002015460C4636
:1006400004903246694604A8FFF7D4FF0246049896
:10065000211825B108B1084600E02046286004981A
:1006600000280DD0002A02DD0098884208D0081B1F
:100670000094CDE901043246694604A8FFF7BAFFA9
:1006800006B070BDA10C0008BF0C00082D090008C1
:100690002DE9F04791460F4680460446002614F89F
:1006A000015B2DB100F03EF90068405DC007F6D156
:1006B0002B2D02D02D2D18D0641E4A4639462046D7
:1006C00000F00EFB27B13968A14201D1C7F80080C4
:1006D00071054FF002040BD54042002803DD01F004
:1006E000F7FC0460A007BDE8F08746F48066E4E705
:1006F0000028F8DA01F0ECFC04606FF00040F2E74B
:1007000010B5141E73F1000408DA401C41F1000119
:1007100092185B411A4301D120F0010010BD2DE970
:10072000F04D92469B4611B1B1FA81F202E0B0FA67
:1007300080F220329046FFF72BFF04460F4640EA36
:100740000A0041EA0B0153465A46084313D01146AA
:1007500053EA010019D0C8F140025046FFF727FFC5
:1007600005460E46504659464246FFF711FF0843DC
:1007700005D0012004E020463946BDE8F08D002078
:10078000054346EAE0762C4337430A986305E40ABA
:10079000A0EB08000022FD0A44EA47540A3002D5C3
:1007A00000200146E9E7010510196941DDE9084526
:1007B00000196941BDE8F04DA2E72DE9FE4F81EA3D
:1007C000030404F0004421F0004100944FF0000BBA
:1007D00023F0004350EA01045ED052EA03045BD0E8
:1007E000C3F30A54C1F30A552C44A4F2F334019420
:1007F000A0FB0254C1F3130141F48011C3F31303AE
:1008000043F4801301FB024400FB034E840A970A61
:1008100044EA815447EA8357A4FB076802958D0A8E
:1008200005FB07854FEA932C04FB0C542705029D1A
:100830004FEA065847EA1637B5EB08056EEB070C8A
:10084000870E920E47EA811742EA8312A7FB020144
:10085000B6EB0B0164EB00042B0D43EA0C335E187E
:1008600044EB1C50DA465146E7FB0201C5F3130482
:100870004FEA0B3343EA14534FEA0432019C43EA34
:100880000603A4F10C040294009CCDE900B4FFF728
:1008900046FF03B0BDE8F08F00200146F9E7C1F341
:1008A0000A52C1F3130140F2FF3341F480119A421E
:1008B00002DA00200146704740F233439A42A2F226
:1008C000334202DC5242FFF772BEFFF761BE000006
:1008D00030B5041E71F1000404DB4FF000444042C7
:1008E00064EB0101141E73F1000405DB1C464FF09C
:1008F0000043524263EB0403994208BF904230BD6B
:10090000064C074D06E0E06840F0010394E807005C
:1009100098471034AC42F6D3FFF73AFC042F000896
:10092000242F000800487047002F000810B5044627
:10093000FFF7F8FF0068005D00F0010010BD000047
:100940002DE9FF4F087883B09946FF2805D0491C50
:100950002D2804D00024002008E000200BE0012412
:10096000F9E700EB800003EB4000491C0B78FF2BFC
:10097000F7D104B1404200230293147819461D4672
:100980002D2C01D02B2C04D1521C2D2C13D0002443
:100990000294AA461478FF2C0FD00A25A3FB0578F1
:1009A00001FB05814FF0000C03FB0C11521CE319F5
:1009B0004AEB0101EEE70124EAE7814453EA010032
:1009C00002D019F5C87F06DA03980021C0E90011AA
:1009D00007B0BDE8F08F0025AE4E2F46DFF8B88295
:1009E000184600F0DAF9CDE90001B9F1000002DAA9
:1009F000C9F1000400E004460023A74A1AEB030BE8
:100A000042EB045A12E0E00707D02A463346384644
:100A10004146FFF7D2FE074688462A46334610462F
:100A20001946FFF7CAFE05460E466410002CEAD1AF
:100A3000DDE90001B9F1000F5A46534606DAFFF727
:100A400011FD3A464346FFF70DFD05E0FFF7B5FE01
:100A50003A464346FFF7B1FE029A0AB181F00041DF
:100A6000039AC2E90001B3E72DE9FF4F1F468DB09D
:100A7000D7E901464FF0FF382E2045464FF00009D8
:100A80000B90B9696D1C0E988847396A8246884771
:100A90000028F6D1BAF1FF3F0AD024F4D064002E2A
:100AA00011DDBAF12B0F08D0BAF12D0F0BD102E0F6
:100AB000404611B08DE744F48064B9696D1C0E980E
:100AC00088478246761E6946600501D52D2000E0E4
:100AD0002B208DF8000001F1010B0DF1200809E039
:100AE000B9696D1C0E98884782460F9844F40074CB
:100AF000761E0560002E02DDBAF1300FF0D00B99A2
:100B00008A453ED144F0800406E00F99681CA9F1A3
:100B1000010944F400740860B9696D1C761E0E98D2
:100B2000884782463028F0D02BE00B998A4505D1C2
:100B3000200603D444F08004761E18E0504601F0ED
:100B4000C5FB08B30DF11301761E44F400748B4508
:100B500008D2AAF130000BF8010B200607D5A9F145
:100B6000010003E0200602D409F101008146A0053E
:100B700002D50F99681C0860B9696D1C0E988847EA
:100B80008246002ED1DC53E0002E51DDBAF1650F14
:100B900002D0BAF1450F4BD1A00549D5B9696D1CFA
:100BA00024F44074761E0E9888478246002E0CDD91
:100BB0002B2804D0BAF12D0F07D144F48074B96901
:100BC0006D1C0E9888478246761EE00501D52D21C2
:100BD00000E02B2108F8011BCDF82C8021E00DF15D
:100BE0002901761E44F4007488450CD2AAF1300025
:100BF00010F0FF0088F8000002D10B99884509D950
:100C000008F1010806E0E00501D5244801E042F2C0
:100C10000F708146B9696D1C0E98884782460F98FF
:100C20000560002E04DD504601F050FB0028D6D1AF
:100C3000F9690E988847FF208BF8000088F80000BB
:100C40000020069007904B466A4608A906A8FFF7C1
:100C500077FEA00502D46FF001002AE714F0240FFC
:100C60000AD0E00714D1DDE906123868031D3B60A5
:100C70000068C0E900120BE0DDE9060100F099F818
:100C80000146E00704D13868021D3A60006801603F
:100C900028460EE7000014400000F03FF1D8FFFFA7
:100CA000426842B1016811F8013B23B1521EC0E90C
:100CB0000012184670470121C160881E70474268C3
:100CC0005AB1C368016843B983688B4205D0491E95
:100CD000521CC0E90012002070474FF0FF307047EF
:100CE0002DE9F05F82460078002715468B460AF111
:100CF0000104B946302801D09DB113E014F8010B6E
:100D00000127782803D0582801D045B10AE00DB159
:100D1000102D07D10027102514F8010B02E008253B
:100D200000E00A250026B0460EE005FB080005FBA2
:100D300006F1012701EB10461FFA80F8B6F5803F57
:100D400000D3B94614F8010B294600F018F8002822
:100D5000EBDABBF1000F05D00FB1641E00E0544682
:100D6000CBF80040B9F1000F06D001F0B1F9022133
:100D70000160C81EBDE8F09F48EA0640FAE73A283D
:100D800000D2303820F02002412A01D3A2F13700EE
:100D9000884201D34FF0FF3070470EB540F2334226
:100DA00002920022CDE900221346FFF7B8FC03B0FF
:100DB00000BD01F0004330B421F0004150EA0102CF
:100DC00006D00A0DA2F56072C1F31301002A02DCFD
:100DD00030BC00207047440F44EAC104C100E01851
:100DE00030BC00EBC250AFF300800029A8BF7047B1
:100DF000401C490008BF20F00100704710B4B0FA51
:100E000080FC00FA0CF050EA010404BF10BC7047EB
:100E100049B1CCF1200421FA04F411FA0CF118BF05
:100E2000012121430843A3EB0C01CB1D4FEA0061D4
:100E30004FEA102042BF002010BC704700EBC350A7
:100E400010440029A4BF10BC7047401C490008BFD3
:100E500020F0010010BC70472DE9F0410446876D79
:100E600000F052F9054694F835000026022806D015
:100E70008020606584F834600120BDE8F08120683E
:100E8000016821F0160101602068416921F08001AC
:100E90004161206C08B9A06C20B12068016821F084
:100EA000080101602068016821F0010101600BE088
:100EB00000F02AF9401B052806D92020606504F8B7
:100EC000346F03206070D8E720680068C007EFD156
:100ED00094F85C103F208840B86004F8346F01201B
:100EE00060700020C9E790F83510022903D08021F6
:100EF000416501207047052180F8351000680168C0
:100F000021F00101016000207047000070B5044627
:100F100000F0FAF80546601C02D00448007804444A
:100F200000F0F2F8401BA042FAD370BD040000208C
:100F30002DE9F84FDFF89891002209F1040A0AF12F
:100F4000040B03274FF00F0C0BF1040E01250B6867
:100F500095402B40AB4272D10C7904F00304012C74
:100F600001D0022C15D18668540007FA04F826EA4D
:100F70000806D1F80C8008FA04F848EA0608C0F818
:100F800008804468AC430D79C5F3001595402543AE
:100F900045600C79E443A40708D0C568540007FAFB
:100FA00004F6B5438E68A6402E43C6600C7904F063
:100FB0000304022C11D1D40800EB8406356A5407CF
:100FC000E40E0CFA04F825EA0805D1F8108008FAB6
:100FD00004F848EA0508C6F820800568540007FAB6
:100FE00004F6B5430E7906F00306A6402E430660CC
:100FF0004C68E40066D5374C256845F4804525608B
:10100000246822F0030504F480440094324C05EB7C
:101010000408D8F808589407260F0CFA06F4A543DC
:101020002E4CA04201D1002424E02D4CA04201D13D
:1010300001241FE02B4CA04202D102241AE041E01F
:10104000294CA04201D1032414E0284CA04201D134
:1010500004240FE0264CA04201D105240AE0254CCF
:10106000A04201D1062405E0234CA04201D107246F
:1010700000E00824B4402C43C8F80848D9F80040E0
:101080004D464E689C43F60300D51C432C60DAF8AD
:10109000004055464E689C43B60300D51C432C6067
:1010A000DBF800405D464E689C43F60200D51C43C9
:1010B0002C60DEF8004075464E689C43B60200D5B1
:1010C0001C432C60521C102AFFF440AFBDE8F88F7F
:1010D000003C014044380240003001400000024022
:1010E0000004024000080240000C024000100240D0
:1010F0000014024000180240001C02400AB1816145
:1011000070470904FBE70000014880687047000051
:101110000400002002488168027811448160704711
:10112000040000200B4810B5016841F40071016013
:10113000016841F480610160016841F480710160DF
:10114000032000F083F8002000F006F800F024F8F7
:10115000002010BD003C024070B50D4D04464FF418
:101160007A712878B1FBF0F00A490968B1FBF0F018
:1011700000F027FB48B9102C07D200222146501E50
:1011800000F044F800206C6070BD012070BD0000CC
:10119000040000201000002010B5072000F056F8D1
:1011A000002211466FF00B0000F030F800221146CB
:1011B0006FF00A0000F02AF8002211466FF00900D3
:1011C00000F024F800221146501F00F01FF8002202
:1011D0001146101F00F01AF800221146901E00F070
:1011E00015F80022BDE810401146501E00F00EB860
:1011F000002809DB00F01F02012191404009800016
:1012000000F1E020C0F8001170470000F0B40E4B70
:101210001B68C3F30223C3F10704042C00D9042480
:101220001D1D072D01D2002300E0DB1E012606FA5A
:1012300004F56D1E0D409D409E40761E164045EA09
:101240000601F0BC00F034BF0CED00E0064A00F0EF
:10125000070110684FF6FF03184040EA01200349D8
:1012600008431060704700000CED00E00000FA0534
:101270002DE9F0470D46040065D0DFF81491D9F848
:101280000000EFB200F00700A84207D289F8007012
:10129000D9F8000000F00700A84254D120683D4E64
:1012A000810712D5400703D5306840F4E050306024
:1012B0002078000703D5306840F460403060306823
:1012C000A16820F0F000084330602078C0072DD0DE
:1012D000304960680839012812D0022813D0032849
:1012E00011D00968890700292DDA316821F003013E
:1012F00001433160FFF708FF804641F2883A0EE073
:1013000009688903EFE709688901ECE7FFF7FCFE4C
:10131000A0EB0801514502D90320BDE8F0873068F1
:10132000616800F00C00B0EB810FEFD1D9F800102C
:10133000484601F00701A94207D90770006800F08C
:101340000700A84201D00120E7E72078400705D533
:101350003068E16820F4E0500843306020780007EE
:1013600006D53068216920F4604040EAC100306051
:1013700000F03EF83168084AC1F30311515CC840DF
:101380000649086006480068FFF7E6FE0020C4E74B
:10139000003C024008380240642E00081000002083
:1013A000080000200148006870470000100000207D
:1013B0000448054900680968044AC1F38221515C68
:1013C000C84070471000002008380240742E000802
:1013D0000448054900680968044AC1F34231515C78
:1013E000C84070471000002008380240742E0008E2
:1013F000154810B5006810F00C01144813D04310C4
:1014000004290FD008290ED10F4C241F216801F0A8
:101410003F022168490207D52068C0F38810A0FB6D
:10142000030106E0184610BD2168C1F38811A1FB35
:1014300000010023FEF7C6FE2168C1F30141491CEB
:101440004900B0FBF1F010BD083802400024F40060
:101450002DE9F84F040075D02078DFF838A3C007D5
:10146000AAF1040548D00AF104000168C1F3810122
:10147000012908D00068C0F3810002280AD1DAF8F7
:101480000000400206D52868800335D56068002832
:10149000E1D031E06068B0F5803F10D0B0F5A02F0A
:1014A000286810D020F480302860286820F480203C
:1014B00028606068A0B1FFF727FE06460CE02868A8
:1014C00040F48030F4E740F480202860F7E7FFF72D
:1014D0001BFE801B642871D828688003F7D50BE0B9
:1014E000FFF712FE064604E0FFF70EFE801B64289D
:1014F000F1D828688003F7D42078DFF89C92800721
:101500004FF0000B3DD5A348001D016811F00C0FF2
:1015100008D00068C0F3810002280AD1DAF8000080
:10152000400206D42868800715D5E068012809D153
:1015300011E0E068B8B10120C9F80000FFF7E4FD50
:10154000064605E022E1FFF7DFFD801B0228C2D836
:1015500028688007F7D52868216920F0F80040EA5C
:10156000C10028600DE0C9F800B0FFF7CDFD0646C8
:1015700004E0FFF7C9FD801B02281FD828688007F8
:10158000F7D42078000722D5824F844861697037EC
:1015900071B101210160FFF7B7FD064604E0FFF7D6
:1015A000B3FD801B022809D838688007F7D50EE004
:1015B000C0F800B0FFF7A8FD064605E082E0FFF79F
:1015C000A3FD801B02287DD838688007F7D42078D7
:1015D000400765D56F484FF000083C300068C000F8
:1015E0000BD46C483C30016841F0805101600068C8
:1015F0004FF0010800F080500090694F3868C00536
:101600000FD4386840F480703860FFF77DFD0646DF
:1016100004E0FFF779FD801B022853D83868C00525
:10162000F7D55C4FA0686C3701280FD005283868C3
:1016300010D020F001003860386820F004003860D5
:10164000A068B0B1FFF760FD06460EE0386840F0D4
:101650000100F4E740F004003860F7E7FFF754FDBD
:10166000811B41F28830814263D838688007F5D504
:101670000DE0FFF749FD064606E0FFF745FD811B3B
:1016800041F28830814254D838688007F5D4B8F1E7
:10169000000F05D03F483C30016821F080510160C7
:1016A000A069B8B33B49091D0968C1F3810102294A
:1016B00046D00228584606D0C9F86000FFF724FD3E
:1016C000044639E035E04F46C9F86000FFF71CFDDD
:1016D000064604E0FFF718FD801B022829D8286879
:1016E0008001F7D4D4E907010843A16A2D4A4908CB
:1016F00002EB0141626A41EA8211084394F82C101E
:1017000040EA0161CAF8001001203866FFF7FCFCCE
:10171000044605E03CE0FFF7F7FC001B022808D870
:1017200028688001F7D533E0FFF7EEFC001B0228A4
:1017300002D90320BDE8F88F28688001F4D427E09F
:101740000128F7D0DAF80000E26900F48001914244
:101750001CD1226A00F03F01914217D147F6C071B7
:10176000626A0140B1EB821F10D1A26A4FF0FF33D1
:1017700000F4403103EB5202B1EB024F06D194F872
:101780002C1000F07060B0EB016F01D00120D1E7A8
:101790000020CFE70438024000004742800E474255
:1017A000007000400000FFFF4FF0E02104280869AE
:1017B00003D020F004000861704740F00400FAE70D
:1017C000704710B5401EB0F1807F01D3012010BDDD
:1017D0004FF0E02460610F21601700F069FC0020E9
:1017E000A06107202061002010BD10B5FFF7E8FFC1
:1017F00010BD704770470000F8B5026804461068D5
:10180000D168536910F00F0F4FF0000553D003F06B
:10181000010601F4907737435FD0C20705D0CA05AF
:1018200003D5226C42F001022264420705D5DA0793
:1018300003D0226C42F002022264820705D5DA0747
:1018400003D0226C42F004022264020707D501F0A3
:101850002002324303D0226C42F008022264226C40
:10186000002A34D0800604D5880602D5204600F030
:10187000FBFA20684069216CC0F38010090700D48E
:1018800030B3204600F0D8FA2068416949061BD5DC
:10189000416921F040014161A06BA8B1594901653E
:1018A000A06BFFF720FB002811D0A06B016D01B0E9
:1018B000BDE8F040084783060FD58B060DD52046BE
:1018C000BDE8F84000F0D0BA2046FFF793FFF8BD1E
:1018D0002046FFF78FFF2564F8BD266B2023012EDD
:1018E00053D1C60651D5CE064FD51068506800902A
:1018F000506940062BD5A16B086840680004000CB5
:10190000EAD0A68D8642E7D9E085C869B0F5807F28
:1019100018D0D06820F48070D0602068416921F030
:10192000010141612068416921F04001416184F871
:101930003E3025632068C16821F01001C160A06BB2
:10194000FFF78AFAA08DE18D401A81B219E0A08DCF
:10195000E18D401A81B2E08D0028BDD00029BBD0B6
:10196000D06820F49070D0602068426922F00102B3
:10197000426184F83E3025632068C26822F010027C
:10198000C2602046FFF735FFF8BD05062BD50D06D2
:1019900029D594F83D002128F6D1A068B0F5805FE4
:1019A00001D12069B0B1206A411C21622168007810
:1019B0004860E08C401E0004000CE084E4D1206804
:1019C000C16821F08001C1602068C16841F0400118
:1019D000C160F8BD206A0088C0F308005060206A2A
:1019E000801C2062E5E74006F3D54806F1D5D168B2
:1019F000204621F04001D16084F83D3000F099F894
:101A0000F8BD0000291E000870B5040004D094F849
:101A10003D00002510B106E0012070BD84F83C5067
:101A2000204600F023F8242084F83D002068C16897
:101A300021F40051C160204600F06EFA206801696F
:101A400021F4904101612068416921F02A0141613E
:101A50002068C16841F40051C1602564202084F8E9
:101A60003D0084F83E00002070BD000000B5006815
:101A7000124987B088421ED11148016841F40031F3
:101A800001600068694600F4003005900C20009069
:101A9000022001900120029003200390072004906F
:101AA0000848FFF745FA002211462620FFF7AEFB53
:101AB0002620FFF79DFB07B000BD0000004400405A
:101AC000403802400000024090F83E30202B0ED1FA
:101AD00059B152B190F83C30012B08D0012380F865
:101AE0003C300023036300F09DBA012070470220C0
:101AF0007047704790F83D30202B18D1A9B1A2B1A2
:101B000090F83C30012B12D001628284C284002103
:101B10000164212280F83D2080F83C100068C168F3
:101B200041F08001C1600020704701207047022011
:101B3000704770472DE9F04F6D4887B00024016869
:101B400041F010010160016801F010010591016888
:101B500041F004010160016801F004010591016890
:101B600041F080010160016801F080010591016888
:101B700041F001010160016801F001010591016876
:101B800041F002010160016801F002010591016864
:101B900041F0080101600068002200F00800059093
:101BA00008215448FFF7AAFA012211465248FFF7CC
:101BB000A5FA4FF2100A002251465048FFF79EFA4C
:101BC000082501260095CDE901646946494803943A
:101BD000FFF7AEF90096CDE90164694646480394E3
:101BE000FFF7A6F900950225CDE901540527CDE9B7
:101BF000034769464048FFF79BF941480096CDE905
:101C00000104DFF800B169465846FFF791F910204A
:101C10000090CDE901544FF00608CDE9034869462C
:101C20005846FFF785F9E0200090CDE90154CDE951
:101C3000034769465846FFF77BF94FF00409CDE9A1
:101C40000094694630480294FFF772F968020090E8
:101C5000CDE90154CDE9034769462B48FFF768F900
:101C6000CDF800A0CDE90164694624480394FFF74C
:101C70005FF94FF4A4500090CDE90154CDE9034839
:101C800069461D48FFF754F92802CDE9000469466A
:101C900058460294FFF74CF94FF4E0500090CDE91C
:101CA00001540A20CDE9034069465846FFF740F940
:101CB0002020CDE90004694610480294FFF738F966
:101CC0004FF4107000901220CDE90106CDE90349D0
:101CD00069460D48FFF72CF90C480095CDE9010441
:101CE00069460448FFF724F907B0BDE8F08F00000B
:101CF000303802400010024000080240000C024050
:101D00000000111000000240000402400000121008
:101D10000348A0F1440188624FF4FA71FEF78ABAD1
:101D20006800002010B5FFF7F5F9BDE81040FFF797
:101D30005CBD000030B5254893B00025016841F036
:101D400080510160006800F08050119020480168C7
:101D500041F4804101600068022400F48040119049
:101D60000120039010200490009406940820CDE9EF
:101D700007503220099004200A9007200B906846F3
:101D8000FFF766FB00B1FEE70CA90F2081E83100E8
:101D90004FF4A0500F904FF48050109000210CA8E9
:101DA000FFF766FA00B1FEE7FFF7FCFA4FF47A712D
:101DB000B0FBF1F0FFF705FD0420FFF7F5FC002272
:101DC0001146501EFFF722FA13B030BD40380240D2
:101DD000007000401048016841F4700101600F4834
:101DE000016841F0010101600C4A002108321160D4
:101DF00002680B4B1A400260031D0A4A1A6002680F
:101E000022F48022026005480C3001600249580625
:101E1000803908607047000088ED00E0003802401B
:101E2000FFFFF6FE1030002410B5806B0021C18545
:101E3000C184FFF7DFFC10BD0168CA6822F490720C
:101E4000CA6001684A6922F001024A61016B0129F6
:101E500004D10168CA6822F01002CA60202180F80B
:101E60003E1000210163704710B5044690F83E0013
:101E7000222801D0022010BDA0684FF48052904269
:101E800001D1216921B1A16A90421BD048B10AE079
:101E90002168A06A4968C1F308010180A06A801C1A
:101EA00008E0206970B12068406800F07F00087089
:101EB000A06A401CA062E08D401E0004000CE0857A
:101EC00003D01CE020684068F1E72068C16821F079
:101ED0002001C1602068C16821F48071C160206860
:101EE000416921F001014161202084F83E00206B0E
:101EF000012806D02046FFF7FCFD002020630020CB
:101F000010BD2068C16821F01001C160A18D20467C
:101F1000FFF76FFCF1E7000070B504460068016947
:101F2000E26821F4405111430161A1682069E2692E
:101F300001436069104301432068C26849F20C63A1
:101F40009A430A43C26020684169A26921F4407142
:101F50001143416131492068884202D030498842AA
:101F600002D1FFF735FA01E0FFF722FAE269002318
:101F7000192164253226B2F5004F626828D0A0FBF3
:101F80000101930F9200FEF71DF90146B0FBF5F039
:101F90006FF01802504301EB800006EB0010B0FB1D
:101FA000F5F000F0F002B1FBF5F002EB0012B1FB2E
:101FB000F5F06FF01803584301EB800006EB0010BA
:101FC000B0FBF5F000F00F0021681044886070BD90
:101FD000A0FB010192185B41FEF7F4F80146B0FB4B
:101FE000F5F00201B1FBF5F06FF01803584301EB77
:101FF000800006EBC000B0FBF5F000F0F80002EB4B
:102000004002B1FBF5F0584301EB800006EBC00045
:10201000B0FBF5F000F00700D6E70000001001402B
:102020000014014081628285C28500210164222260
:1020300080F83E2080F83C100168CA6842F4807243
:10204000CA6001684A6942F001024A610068C168D9
:1020500041F02001C16000207047000010B5054824
:10206000FFF7CAFBBDE810404FF4FA72024901487D
:10207000FFF72ABD24000020680000200FB47CB5C3
:102080000C0009AD01D0611E00E00021CDE9000186
:10209000064B6A462946089800F020F9002C02D029
:1020A000009A002111707CBC5DF814FBE329000844
:1020B0000907090E002804DB00F1E02080F8001475
:1020C000704700F00F0000F1E02080F8141D704709
:1020D000004870472000002030B583B0044600F06F
:1020E00017F89FED090B05468DED000B00222146E8
:1020F0006846FEF79AFA284600F020F89DED000B9E
:1021000003B030BD0000000000000000000000002F
:1021100001480068704700002000002002E008C865
:10212000121F08C1002AFAD170477047002001E051
:1021300001C1121F002AFBD170470000014908604D
:1021400070470000200000202DE9FF5F82B00021D1
:10215000DDE90430020DDDF840B0034318D044F649
:102160001050A2F2FF3242431514119801281FD0DB
:10217000A5EB0B00401C5FEA000A4FF000064E4F33
:10218000DFF83891B046504615D5CAF1000413E087
:10219000119801244AA3012801D16FEA0B0102988A
:1021A000119AC0E90031C0E9024206B0BDE8F09FD3
:1021B000CBF10000DFE704460021404A491842EB1A
:1021C0000450CDE9001012E0E00707D032463B464C
:1021D00040464946FEF7F1FA8046894632463B467C
:1021E00010461946FEF7E9FA06460F466410002C21
:1021F000EAD1DDE90401DDE90023BAF1000F06DAD6
:10220000FEF7DBFA42464B46FEF7D7FA05E0FEF74B
:1022100029F942464B46FEF725F904460E460022B0
:10222000284BFEF755FB03D84FF0FF30014607E07F
:102230000022254B20463146FEF76DF8FEF72FFBB6
:10224000102409E0002C0ADB0A220023FDF7BAFF64
:10225000039B30321A55641E50EA0102F2D1641C0D
:10226000039AC4F111031444119A012A03D00122E4
:1022700008430DD10AE0084304D000204FF0110BB1
:10228000119072E7A3EB0B056D1E0DE05B4504DDBD
:102290004FF0000205F1010504E003DA4FF00002FF
:1022A000A5F10105002AECD002981199C0E902318C
:1022B000C0E9004579E70000000014400000F03F4D
:1022C000300000000000F0430000E03F30380A28F2
:1022D00001D2012070470020704700002DE9FF4F18
:1022E00095B09A46884606460025EEE1252877D126
:1022F00000242746F94A0121039400E0044316F81C
:10230000013F203B01FA03F01042F7D130782A2830
:1023100011D06FF02F033078A0F13002092A16D8BF
:10232000039A44F0020402EB820203EB42021044DF
:10233000761C0390EFE758F8042B0392002A03DA87
:10234000504244F40054039044F00204761C307868
:102350002E2816D116F8010F44F004042A280DD0B7
:102360006FF02F023078A0F13003092B09D807EB6A
:10237000870302EB4303C718761CF3E758F8047B86
:10238000761C30786C280FD006DC4C2817D06828D3
:102390000DD06A2814D104E0742810D07A280FD107
:1023A0000DE044F400140AE044F4801401E044F425
:1023B00040147278824202D104F58014761C761C97
:1023C000307866280BD013DC582877D009DC002839
:1023D00075D04528F6D04628F4D047281AD193E185
:1023E00018E0632835D0642879D0652812D18BE1B4
:1023F000702873D008DC6728F1D069286FD06E2868
:102400000DD06F2806D1ACE073282CD0752874D07D
:10241000782853D05246179990476D1C54E1C4F365
:102420000250022809D003280DD0D8F80010042843
:102430000DD00D6008F1040846E1D8F80010EA1745
:10244000C1E90052F6E7D8F800100D80F2E70D70F0
:10245000F0E718F8041B8DF8001000208DF801003B
:10246000EB46012003E058F804BB4FF0FF30610752
:102470004FF0000102D40DE009F101018946B94293
:102480000FDA8145F8DB1BF809100029F4D108E0C8
:1024900009F1010189468142FADB1BF80910002984
:1024A000F6D103985346A0EB090721463846179A00
:1024B00000F080FA284400EB090507E044E008E159
:1024C0000DE01BF8010B524617999047B9F101092D
:1024D000F7D2534621463846179AF2E039E00A21EE
:1024E000C4F302524FF0000B0091022A06D058F8B4
:1024F000040BC117032A09D00AE023E008F1070002
:1025000020F00702F2E80201904605E000B2C11790
:10251000042A01D140B2C117002906DA0A46002177
:10252000404261EB02012D2202E0220504D52B225C
:102530008DF80420012203E0E20701D02022F7E712
:10254000914657E00A2100E010214FF0000B009166
:102550000BE010214FF0000B44F004040827009119
:1025600003E008204FF0000B0090C4F30252022A4F
:1025700005D058F8040B0021032A08D008E008F120
:10258000070020F00702F2E80201904603E080B263
:10259000042A00D1C0B24FF0000922072AD53278B0
:1025A000702A07D0DDF800C08CF0100C5CEA0B0C30
:1025B00005D00EE040228DF80420012208E050EA08
:1025C000010306D030238DF804308DF80520022257
:1025D0009146009B83F0080353EA0B030AD150EAAB
:1025E000010201D1620705D530228DF804204FF099
:1025F00001097F1E3278582A04D039A20C920CAA05
:1026000002920BE03BA2F9E75B46009AFDF7DAFD88
:102610000C9B9B5C029A521E0292137050EA0102BC
:10262000F2D1029804A9081A00F1200B600702D524
:1026300024F4803400E001275F4502DDA7EB0B00A6
:1026400000E0002000EB0B01009003984944401A81
:102650000390E00306D453462146179A039800F0EE
:10266000A9F90544002706E001A85246C05D179964
:1026700090476D1C7F1C4F45F6DBE0030CD553469D
:102680002146179A039800F095F9054404E030209C
:102690005246179990476D1C0099481E00900029DA
:1026A000F5DC08E00298029952460078491C029134
:1026B000179990476D1CBBF10001ABF1010BF1DCE8
:1026C0005BE100F065F90544761C307800287FF462
:1026D0000DAE19B02846BDE8F08F000009280100B2
:1026E0003031323334353637383961626364656688
:1026F000000000003031323334353637383941424A
:102700004344454600000000600700D4062708F156
:10271000070020F00700F0E80223804603F0004C99
:102720005FEA0C0001D097A009E0200501D596A032
:1027300005E0E00701D095A001E0AFF24C00139056
:10274000307823F0004365280CD006DC452809D0FA
:1027500046281DD047287FD13BE0662818D067283F
:102760007AD136E00021112F01DB112000E0781C26
:10277000CDE9000104A90CA8FFF7E6FCDDE90D0195
:102780000C9A4FF0000B07F10109109200914EE0F6
:102790004FF000400097CDE9011004A90CA8FFF705
:1027A000D3FCDDE90D020C9B0F994FF0000B914615
:1027B0001093009211B9791C00EB0109B7EB0900E5
:1027C00003D4C0F1FF3B07F10109A9EB0700019019
:1027D00042E0012F00DA01270021112F01DD112035
:1027E00000E03846CDE9000104A90CA8FFF7ACFCD5
:1027F000DDE90D010C9A00914FF0000BB9461092E3
:1028000021070FD4009A4A4503DA914601E0A9F165
:102810000109B9F1010F05DD109AA9F10101515C1F
:102820003029F4D0B84202DA10F1040F03DA0121A2
:10283000CDE9011010E0002803DC8344A9EB00017E
:1028400002E0411C494500DD8946A0EB0B00401C1D
:1028500001904FF000400290200705D401984845B0
:1028600002DB4FF0FF30019000208DF84B00029802
:102870000DF14B07B0F1004F25D002200C902B201A
:102880000D90029800280CDA404202902D200D9005
:1028900007E00A210298FDF765FE3031029007F843
:1028A000011D0C99481E0C900029F2DC02980028AA
:1028B000EFD1791E0D980870307800F0200040F0BC
:1028C000450007F8020D11A8C01BC01D0290139807
:1028D000007800B1012000EB0901019801EBE071E3
:1028E000029801440398401A401E0390E00306D466
:1028F00053462146179A039800F05CF80544139854
:10290000007818B15246179990476D1CE00323D503
:1029100053462146179A039800F04CF805441BE0F3
:10292000BBF1000F07DB0098584504DD109817999C
:1029300010F80B0001E0179930205246904701989B
:102940000BF1010B401E05F10105019004D12E2071
:102950005246179990476D1CB9F10001A9F1010980
:10296000DEDC05E017F8010B5246179990476D1C05
:102970000299481E02900029F4DC53462146179A1A
:1029800003989EE62D0000002B00000020000000B0
:102990002DE9F041044600251E461746880404D45C
:1029A00005E039462020B0476D1C641EF9D5284645
:1029B000BDE8F0812DE9F041044600251E46904611
:1029C000C80301D5302700E02027880404D505E09E
:1029D00041463846B0476D1C641EF9D52846BDE80F
:1029E000F0814A68002A06D00A68531C0B601070F8
:1029F0004868401E486070472DED028B9CB0FEF782
:102A000091FBFFF797F9FFF795F891488F490C2252
:102A100001604FF41651416000218160C160C0E93E
:102A200004128161C161FEF7EFFF00B1FEE74FF4D0
:102A30007A60FEF76BFAFFF76BF94FF47A76750060
:102A4000FFF766F9042283A18148FFF753F8304667
:102A5000FEF75CFA7E4880A14430FDF715FC0028A3
:102A6000EED1FFF755F9FFF753F90E227CA1784814
:102A7000FFF740F83046FEF749FA754876A1443032
:102A8000FDF702FC0028EED1FFF742F90E2278A1F3
:102A90006F48FFF72FF83046FEF738FA6C486EA102
:102AA0004430FDF7F1FB0028EED141F28834FFF706
:102AB0002FF9102272A16648FFF71CF82046FEF796
:102AC00025FA634872A14430FDF7DEFB0028EED101
:102AD000FFF71EF90E2278A15D48FFF70BF85C485E
:102AE000794C443079A12060FDF7E6FB0146284689
:102AF000FDF7D8FB75A12068FDF7DEFB01462846EF
:102B0000FDF7D0FB284600F05BF9B0EE408AF0EE0E
:102B1000608A00218DED008B6DA20846FFF7AEFAAA
:102B20000446401C00F016F980468DED008B68A22B
:102B30002146FFF7A3FA284600F042F9B0EE408A9A
:102B4000F0EE608A00218DED008B61A20846FFF750
:102B500095FA0446401C00F0FDF807468DED008B09
:102B60005BA22146FFF78AFA2846FEF7CFF9FFF766
:102B7000CFF8082257A13648FEF7BCFF2846FEF7DB
:102B8000C5F9FFF7C5F80E2254A13148FEF7B2FF90
:102B90002846FEF7BBF92E482FA14430FDF774FB01
:102BA0000028EED12846FEF7B1F9FFF7B1F80D2263
:102BB0004EA12748FEF79EFF2846FEF7A7F92448B6
:102BC00025A14430FDF760FB0028EED12846FEF732
:102BD0009DF94AA102A8FDF765FB414602A8FDF751
:102BE00034FB54A102A8FDF730FB394602A8FDF7DB
:102BF0002CFB52A102A8FDF728FBFFF789F86422FD
:102C000002A91348FEF776FF2846FEF77FF9104821
:102C100011A14430FDF738FB0028EED12846FEF71D
:102C200075F9FFF775F8112245A10948FEF762FF13
:102C30002846FEF76BF9064807A14430FDF724FB50
:102C40000028EED12846FEF761F9F9E6004400407D
:102C50002400002041540D000D0A4F4B0D0A0000C6
:102C600041542B434750535057523D310D00000003
:102C700041542B434750535253543D300D000000F4
:102C800041542B434750535354415455533F0D0027
:102C90000D0A2B434750535354415455533A204C3B
:102CA0006F636174696F6E203244204669780D0A43
:102CB0000D0A4F4B0D0A000041542B434750534916
:102CC0004E463D320D000000000000202C000000A8
:102CD0002566000041542B4353510D0041542B53A2
:102CE000415042523D312C310D00000041542B48DF
:102CF000545450494E49540D0000000041542B4893
:102D0000545450504152413D2255524C222C22766F
:102D100070733236383439352E6F76682E6E65749E
:102D20002F696E736572742E7068703F6C6F6E3DA4
:102D300000000000266C61743D000000220D0000C0
:102D400041542B48545450414354494F4E3D300D4B
:102D500000000000F0B50B30154D20F007010024F5
:102D6000144A0FE003688B420BD38B4205D95E1ADD
:102D700043184768C3E9006700E04368136002C076
:102D800004E0021D10680028ECD12046002802D182
:102D9000286808B10020F0BD064A07481060074ABD
:102DA000121A22F00702C0E9002401202860D7E7A8
:102DB0001C00002018000020640200206004002095
:102DC00070B500252DED028B86B006469FED218B58
:102DD0002C4603E0305D2E280FD0641C3046FDF7F2
:102DE0004CFAA042F6D8032D09DAB0EE480AF0EE0C
:102DF000680A06B0BDEC028B70BD2546F3E70020E3
:102E000000900190029003900490AA1E31466846FB
:102E1000FDF727FA711902A8891EFDF743FA6846E3
:102E2000FDF76CFA044602A8FFF756F99FED0B1B5D
:102E300051EC100B53EC112BFDF714FB41EC180B6C
:102E40002046FDF77EFB53EC182BFDF764FA41ECAE
:102E5000100BCEE7000000000000000000000000A2
:102E600000004E40000000000000000001020304CA
:102E7000060708090000000001020304004040406A
:102E8000404040404040414141414140404040403D
:102E900040404040404040404040404040050202E9
:102EA00002020202020202020202020202202020A8
:102EB0002020202020202002020202020202909004
:102EC0009090909010101010101010101010101002
:102ED0001010101010101010020202020202888856
:102EE0008888888808080808080808080808080862
:102EF000080808080808080802020202400000004A
:102F00007D2E0008242F000800000020240000006F
:102F10001C210008482F0008240000203C08000065
:102F20002C2100080000000001000000100000003B
:102F3000000000000024F400000000000000000079
:082F4000000000000000000089
:040000050800018965
:00000001FF
